:040000000DEF00F010
:040008000CEF14F0F5
:06001800FF00CAEF13F027
:07250000000240000300008F
:10250800FF076308C7082B098E09F009500AAF0AAC
:102518000D0B690BC20B1A0C6E0CC10C100D5C0D67
:10252800A40DEA0D2B0E690EA30ED90E0A0F380F53
:10253800610F850FA50FBF0FD60FE70FF40FFB0F25
:10254800FE0FFC0FF50FE90FD80FC20FA80F890F68
:10255800650F3D0F100FDF0EA90E700E330EF10D33
:10256800AD0D640D190DCA0C780C230CCC0B730B34
:10257800180BBA0A5B0AFB0999093609D3086F08D0
:102588000A08A6074207DF067C061A06B905590598
:10259800FC04A0044604EE0399034703F702AB02C8
:1025A80062021C02DA019C0161012B01F900CB00D7
:1025B800A2007D005D0041002B0019000C00030003
:1025C80000000200080014002400390053007200C3
:1025D8009500BD00E90019014E018701C4010502FB
:1025E80049029102DD022B037D03D10327048104F4
:1025F800DC0439059805F8055A06BD062007840746
:10260800076E000184BF0BEF13F00DEF13F06EEFB0
:1026180013F00750050D010EF324F66E250EF42075
:10262800F76EF86A000EF8220800F5C484F0075027
:10263800050D010EF326000EF422010EF324F66EAA
:10264800250EF420F76EF86A000EF8220800F5C48B
:1026580085F00750050D020EF326000EF422010E38
:10266800F324F66E250EF420F76EF86A000EF822B1
:102678000800F5500309866F0750050D030EF32671
:10268800000EF422010EF324F66E250EF420F76EE8
:10269800F86A000EF8220800F5C489F00750050D05
:1026A800040EF326000EF422010EF324F66E250E16
:1026B800F420F76EF86A000EF82208006100D4F3DF
:1026C80006F5063A06460646C8500618BF0B061811
:1026D800C86E848F1200000EC26E000EC16E000E0E
:1026E800BE6E000EC36E000EBF6E000EC06E070EEB
:1026F800CA6EF70ECB6EC668C768AF0EC86E7F0E7F
:10270800C96E7F0E0401186F8F0E106F0869070ECF
:10271800206FF70E286F0069000E196F000E296FE1
:10272800000E216F000E096F000E016F000E116F71
:10273800000E0201896F000E886F000E876F000E71
:10274800866F000E0401226F000E2A6F000E026FC2
:10275800000E0A6F000E126F000E1A6F03690B69E4
:1027680013691B69070E236F2B6904690C691469C7
:102778001C690F0E246F2C69160E02016A6F320E47
:10278800156F310E176F150E6B6F1200080EF66E6F
:10279800250EF76E000EF86E01EE00F210EE00F155
:1027A8000900F5C4EEF4E550E150FAE1E250F8E131
:1027B80001EE09F1070EEE6AE806FDE10401080ED4
:1027C8005D6F000E5E6F000E5F6F00015AEF14F030
:1027D8000E50020D000EF324D96E060EF420DA6EA8
:1027E800610078F30BF5610074F30CF50E2A0BC544
:1027F80002F50CC503F592EC14F07F0E0E6407EF9A
:1028080014F009EF14F00BEF14F0000E0E6E120026
:102818006100E8F304F56100ECF305F5A1A617EFF4
:1028280014F019EF14F022EF14F0B1A61EEF14F013
:1028380020EF14F022EF14F0D1EC14F0610014F43E
:10284800FBF4610010F4FAF41100010E0301266F85
:10285800000E256F000E276F9B0E236F000E226F50
:10286800B196A186AE0E066E290E076E000E086E92
:10287800CAEC14F0B00E0301246F120010501110AE
:102888001210D8B44AEF14F04CEF14F059EF14F0CA
:1028980002D859EF14F00500FA6E1050FD6E115071
:1028A800FE6E1250FF6EFA5012001200B0EC14F0D7
:1028B800C386000E04EC13F0D68EC396C386D80EDA
:1028C800066E270E076E000E086ECAEC14F06BEF4A
:1028D80014F00DEF00F0000E0001606F000E616F44
:1028E800000E636F000E646F000E656F000E666F5A
:1028F800000E676F000E686F1200016E010E000176
:10290800826F610004F481F0B1A08DEF14F08FEFB5
:1029180014F088EF14F0000180511200C19E03509A
:102928000F0B0F6E300E0F120F5081EC14F002C512
:102938000FF50F5081EC14F0C18E1200600E0001EB
:10294800AD6F000EAF6F000EB36F080EB16F000EC3
:10295800B06F000EAC6F1200D5EC14F06FEC14F0F1
:102968006FEC13F0A2EC14F029EC14F0BDEC14F0A9
:102978001200020E0001846F400E856F000E866FF4
:10298800000E8C6F030E896FC89C120006C510F5E7
:1029980007C511F508C512F51200B19642EC14F0FE
:0829A8001200D69A1200120081
:020000040020DA
:10000000FF0FFF0FFF0FFF0FFF0FFF0FFF0FFF0F80
:10001000FF0FFF0FFF0FFF0FFF0FFF0FFF0FFF0F70
:10002000FF0FFF0FFF0FFF0FFF0FFF0FFF0FFF0F60
:10003000FF0FFF0FFF0FFF0FFF0FFF0FFF0FFF0F50
:020000040030CA
:0A0000008CFFF7FF9FFFFFFFFFFFDB
:00000001FF
